:0400000080312928FA
:100008007E14803120007F08FA00911E1328911277
:1000180023001908F9007908F500F601F60A20000E
:10002800911C242891100130BE070030BF3D0130DB
:100038003F02003003193E02031C24288031E120CE
:100048007A082000FF007E10090080312B287030CC
:1000580084000030850009308031F720803120305D
:1000680084000030850028308031F7208031A030AE
:100078008400003085003C308031F7207E1020005D
:10008800803146288031652080318031822080315E
:100098008031FD20803122008E11B9308031C4209A
:1000A800803122008E158031B02080317408031D04
:1000B80063288031E9208031640063000000640017
:1000C80057287030210099004730950023008C0193
:1000D8008E01083021008C00013024008C00103083
:1000E80021008E00383020008C0020308E00210046
:1000F8001708C1390E3897001714080021000E128E
:100108008E1622009D131D11263023009E0090306C
:100118009D00C8309F009C019F1400309C00103047
:100128009B000B17210091168B17080021000E1158
:100138008E140E108E1122008E1524009401950144
:10014800F030950515121417960121009111200021
:100158009111240095160800BE2876080319080096
:10016800F60175088031F0208031F401F40A8031FD
:10017800D42008007808003A0319B128C3280800D9
:100188002000C90091114908240091002000911D08
:10019800CA2824001108FB007B082000C8000800BA
:1001A8002000BE01BF0103309C0487309C051C154C
:1001B800210091140B178B1708002000BE01BF0106
:1001C800F4011C1121009110080023009F14210044
:1001D80091160B178B170800FB0023009E1CF128B3
:1001E8007B089A000800640080010131890BF82817
:0801F800003480319A20080058
:020000040001F9
:04000E006CE8FFDEBD
:00000001FF
